{
  "_format": "hh-sol-artifact-1",
  "contractName": "DataInsurance",
  "sourceName": "contracts/DataInsurance.sol",
  "abi": [
    {
      "inputs": [
        {
          "internalType": "address payable",
          "name": "_verifierCompany",
          "type": "address"
        }
      ],
      "stateMutability": "nonpayable",
      "type": "constructor"
    },
    {
      "inputs": [
        {
          "internalType": "address",
          "name": "_user",
          "type": "address"
        }
      ],
      "name": "approveClaim",
      "outputs": [],
      "stateMutability": "nonpayable",
      "type": "function"
    },
    {
      "inputs": [],
      "name": "cancelInsurance",
      "outputs": [],
      "stateMutability": "nonpayable",
      "type": "function"
    },
    {
      "inputs": [
        {
          "internalType": "address",
          "name": "",
          "type": "address"
        }
      ],
      "name": "claims",
      "outputs": [
        {
          "internalType": "enum DataInsurance.ClaimStatus",
          "name": "",
          "type": "uint8"
        }
      ],
      "stateMutability": "view",
      "type": "function"
    },
    {
      "inputs": [],
      "name": "payPremiumToVerifier",
      "outputs": [],
      "stateMutability": "payable",
      "type": "function"
    },
    {
      "inputs": [
        {
          "internalType": "address",
          "name": "_user",
          "type": "address"
        }
      ],
      "name": "rejectClaim",
      "outputs": [],
      "stateMutability": "nonpayable",
      "type": "function"
    },
    {
      "inputs": [
        {
          "internalType": "enum DataInsurance.InsurancePackage",
          "name": "_package",
          "type": "uint8"
        }
      ],
      "name": "selectPackage",
      "outputs": [],
      "stateMutability": "payable",
      "type": "function"
    },
    {
      "inputs": [],
      "name": "submitClaim",
      "outputs": [],
      "stateMutability": "nonpayable",
      "type": "function"
    },
    {
      "inputs": [
        {
          "internalType": "address",
          "name": "",
          "type": "address"
        }
      ],
      "name": "users",
      "outputs": [
        {
          "internalType": "enum DataInsurance.InsurancePackage",
          "name": "package",
          "type": "uint8"
        },
        {
          "internalType": "uint256",
          "name": "premiumAmount",
          "type": "uint256"
        },
        {
          "internalType": "uint256",
          "name": "lastPaymentTimestamp",
          "type": "uint256"
        },
        {
          "internalType": "uint256",
          "name": "totalPayments",
          "type": "uint256"
        },
        {
          "internalType": "bool",
          "name": "isActive",
          "type": "bool"
        }
      ],
      "stateMutability": "view",
      "type": "function"
    },
    {
      "inputs": [],
      "name": "verifierCompany",
      "outputs": [
        {
          "internalType": "address payable",
          "name": "",
          "type": "address"
        }
      ],
      "stateMutability": "view",
      "type": "function"
    }
  ],
  "bytecode": "0x608060405234801561001057600080fd5b50604051610fe0380380610fe083398101604081905261002f91610089565b600080546001600160a01b0319166001600160a01b03929092169190911790556100b2565b60006001600160a01b0382165b92915050565b61007081610054565b811461007b57600080fd5b50565b805161006181610067565b60006020828403121561009e5761009e600080fd5b60006100aa848461007e565b949350505050565b610f1f806100c16000396000f3fe6080604052600436106100965760003560e01c8063263de34811610069578063a87430ba1161004e578063a87430ba14610138578063c6788bdd14610199578063dbb773d9146101d657600080fd5b8063263de348146101105780633a0132c71461012357600080fd5b80630ec48c481461009b5780631afbd128146100d15780631df34fab146100e85780631f30ed7a146100f0575b600080fd5b3480156100a757600080fd5b506000546100bb906001600160a01b031681565b6040516100c891906108bb565b60405180910390f35b3480156100dd57600080fd5b506100e66101f6565b005b6100e661028c565b3480156100fc57600080fd5b506100e661010b3660046108eb565b610413565b6100e661011e36600461092c565b6104ea565b34801561012f57600080fd5b506100e66106e2565b34801561014457600080fd5b506101886101533660046108eb565b60016020819052600091825260409091208054918101546002820154600383015460049093015460ff94851694929391921685565b6040516100c89594939291906109a4565b3480156101a557600080fd5b506101c96101b43660046108eb565b60026020526000908152604090205460ff1681565b6040516100c891906109f0565b3480156101e257600080fd5b506100e66101f13660046108eb565b610730565b3360009081526001602052604090206004015460ff166102315760405162461bcd60e51b815260040161022890610a5b565b60405180910390fd5b33600090815260026020819052604082205460ff16908111156102565761025661094d565b146102735760405162461bcd60e51b815260040161022890610ac5565b336000908152600260205260409020805460ff19169055565b336000908152600160205260409020600481015460ff166102bf5760405162461bcd60e51b815260040161022890610b2f565b60008160020154426102d19190610b55565b905060006102e26224ea0083610b7e565b905060006102f36224ea0083610b92565b84600201546103029190610bb1565b9050804210156103245760405162461bcd60e51b815260040161022890610bfb565b6000610331836001610bb1565b905060008560010154826103459190610b92565b9050828660020181905550818660030160008282546103649190610bb1565b9091555050348111156103895760405162461bcd60e51b815260040161022890610c3f565b600080546040516001600160a01b039091169083906103a790610c4f565b60006040518083038185875af1925050503d80600081146103e4576040519150601f19603f3d011682016040523d82523d6000602084013e6103e9565b606091505b505090508061040a5760405162461bcd60e51b815260040161022890610c8b565b50505050505050565b6000546001600160a01b0316331461043d5760405162461bcd60e51b815260040161022890610cf5565b6001600160a01b03811660009081526001602052604090206004015460ff166104785760405162461bcd60e51b815260040161022890610a5b565b6001600160a01b038116600090815260026020819052604082205460ff16908111156104a6576104a661094d565b146104c35760405162461bcd60e51b815260040161022890610d39565b6001600160a01b03166000908152600260208190526040909120805460ff19169091179055565b60008160028111156104fe576104fe61094d565b1015801561051e5750600281600281111561051b5761051b61094d565b11155b61053a5760405162461bcd60e51b815260040161022890610da3565b3360009081526001602052604090206004015460ff161561056d5760405162461bcd60e51b815260040161022890610e0d565b336000908152600160208190526040909120805490918391839160ff19909116908360028111156105a0576105a061094d565b021790555060048101805460ff1916600117905542600282015560008260028111156105ce576105ce61094d565b036105e55766470de4df8200006001820155610638565b60018260028111156105f9576105f961094d565b036106105766b1a2bc2ec500006001820155610638565b60028260028111156106245761062461094d565b03610638576706f05b59d3b2000060018201555b806001015434101561065c5760405162461bcd60e51b815260040161022890610e51565b600080546040516001600160a01b0390911690349061067a90610c4f565b60006040518083038185875af1925050503d80600081146106b7576040519150601f19603f3d011682016040523d82523d6000602084013e6106bc565b606091505b50509050806106dd5760405162461bcd60e51b815260040161022890610e95565b505050565b3360009081526001602052604090206004015460ff166107145760405162461bcd60e51b815260040161022890610a5b565b336000908152600160205260409020600401805460ff19169055565b6000546001600160a01b0316331461075a5760405162461bcd60e51b815260040161022890610cf5565b6001600160a01b03811660009081526001602052604090206004015460ff166107955760405162461bcd60e51b815260040161022890610a5b565b6001600160a01b038116600090815260026020819052604082205460ff16908111156107c3576107c361094d565b146107e05760405162461bcd60e51b815260040161022890610d39565b6001600160a01b0381166000908152600260208181526040808420805460ff1916600190811790915590915282206003015461081b91610b92565b90506000826001600160a01b03168260405161083690610c4f565b60006040518083038185875af1925050503d8060008114610873576040519150601f19603f3d011682016040523d82523d6000602084013e610878565b606091505b50509050806106dd5760405162461bcd60e51b815260040161022890610ed9565b60006001600160a01b0382165b92915050565b6108b581610899565b82525050565b602081016108a682846108ac565b6108d281610899565b81146108dd57600080fd5b50565b80356108a6816108c9565b60006020828403121561090057610900600080fd5b600061090c84846108e0565b949350505050565b600381106108dd57600080fd5b80356108a681610914565b60006020828403121561094157610941600080fd5b600061090c8484610921565b634e487b7160e01b600052602160045260246000fd5b600381106108dd576108dd61094d565b8061097d81610963565b919050565b60006108a682610973565b6108b581610982565b806108b5565b8015156108b5565b60a081016109b2828861098d565b6109bf6020830187610996565b6109cc6040830186610996565b6109d96060830185610996565b6109e6608083018461099c565b9695505050505050565b602081016108a6828461098d565b602f81526000602082017f5573657220646f6573206e6f74206861766520616e2061637469766520696e7381527f7572616e6365207061636b6167652e0000000000000000000000000000000000602082015291505b5060400190565b602080825281016108a6816109fe565b602e81526000602082017f436c61696d2068617320616c7265616479206265656e207375626d697474656481527f206f722070726f6365737365642e00000000000000000000000000000000000060208201529150610a54565b602080825281016108a681610a6b565b602e81526000602082017f5573657220646f6573206e6f74206861766520616e2061637469766520696e7381527f7572616e6365207061636b61676500000000000000000000000000000000000060208201529150610a54565b602080825281016108a681610ad5565b634e487b7160e01b600052601160045260246000fd5b818103818111156108a6576108a6610b3f565b634e487b7160e01b600052601260045260246000fd5b600082610b8d57610b8d610b68565b500490565b818102808215838204851417610baa57610baa610b3f565b5092915050565b808201808211156108a6576108a6610b3f565b601e81526000602082017f5072656d69756d207061796d656e74206973206e6f7420796574206475650000815291505b5060200190565b602080825281016108a681610bc4565b601b81526000602082017f496e73756666696369656e74207072656d69756d20616d6f756e74000000000081529150610bf4565b602080825281016108a681610c0b565b6000816108a6565b601781526000602082017f5072656d69756d207472616e73666572206661696c656400000000000000000081529150610bf4565b602080825281016108a681610c57565b603d81526000602082017f4f6e6c7920746865207465726d73202620636f6e646974696f6e73207665726981527f666965722063616e20706572666f726d207468697320616374696f6e2e00000060208201529150610a54565b602080825281016108a681610c9b565b601f81526000602082017f4e6f2070656e64696e6720636c61696d20666f72207468697320757365722e0081529150610bf4565b602080825281016108a681610d05565b602381526000602082017f496e76616c696420696e737572616e6365207061636b6167652073656c65637481527f65642e000000000000000000000000000000000000000000000000000000000060208201529150610a54565b602080825281016108a681610d49565b602d81526000602082017f5573657220616c72656164792068617320616e2061637469766520696e73757281527f616e6365207061636b6167652e0000000000000000000000000000000000000060208201529150610a54565b602080825281016108a681610db3565b601c81526000602082017f496e73756666696369656e74207072656d69756d20616d6f756e742e0000000081529150610bf4565b602080825281016108a681610e1d565b601881526000602082017f5072656d69756d207472616e73666572206661696c65642e000000000000000081529150610bf4565b602080825281016108a681610e61565b601481526000602082017f436c61696d207061796f7574206661696c65642e00000000000000000000000081529150610bf4565b602080825281016108a681610ea556fea264697066735822122027a6b2fbc70a75d788397510305376b34e2d48d695da1bbb0b1611c2cdbd6a6164736f6c63430008110033",
  "linkReferences": {},
  "deployedLinkReferences": {}
}