{
  "_format": "hh-sol-artifact-1",
  "contractName": "DataInsuranceFactory",
  "sourceName": "contracts/DataInsuranceFactory.sol",
  "abi": [
    {
      "inputs": [
        {
          "internalType": "address payable",
          "name": "_verifierCompany",
          "type": "address"
        }
      ],
      "stateMutability": "nonpayable",
      "type": "constructor"
    },
    {
      "inputs": [
        {
          "internalType": "address",
          "name": "",
          "type": "address"
        }
      ],
      "name": "contractOwners",
      "outputs": [
        {
          "internalType": "address",
          "name": "",
          "type": "address"
        }
      ],
      "stateMutability": "view",
      "type": "function"
    },
    {
      "inputs": [],
      "name": "createDataInsuranceContract",
      "outputs": [],
      "stateMutability": "nonpayable",
      "type": "function"
    },
    {
      "inputs": [
        {
          "internalType": "uint256",
          "name": "",
          "type": "uint256"
        }
      ],
      "name": "deployedContracts",
      "outputs": [
        {
          "internalType": "address",
          "name": "",
          "type": "address"
        }
      ],
      "stateMutability": "view",
      "type": "function"
    },
    {
      "inputs": [
        {
          "internalType": "address",
          "name": "walletAddress",
          "type": "address"
        }
      ],
      "name": "getContractByOwner",
      "outputs": [
        {
          "internalType": "address",
          "name": "",
          "type": "address"
        }
      ],
      "stateMutability": "view",
      "type": "function"
    },
    {
      "inputs": [],
      "name": "getDeployedContracts",
      "outputs": [
        {
          "internalType": "address[]",
          "name": "",
          "type": "address[]"
        }
      ],
      "stateMutability": "view",
      "type": "function"
    },
    {
      "inputs": [
        {
          "internalType": "address",
          "name": "",
          "type": "address"
        }
      ],
      "name": "hasContract",
      "outputs": [
        {
          "internalType": "bool",
          "name": "",
          "type": "bool"
        }
      ],
      "stateMutability": "view",
      "type": "function"
    },
    {
      "inputs": [],
      "name": "verifierCompany",
      "outputs": [
        {
          "internalType": "address payable",
          "name": "",
          "type": "address"
        }
      ],
      "stateMutability": "view",
      "type": "function"
    }
  ],
  "bytecode": "0x608060405234801561001057600080fd5b506040516112c93803806112c983398101604081905261002f91610089565b600080546001600160a01b0319166001600160a01b03929092169190911790556100b2565b60006001600160a01b0382165b92915050565b61007081610054565b811461007b57600080fd5b50565b805161006181610067565b60006020828403121561009e5761009e600080fd5b60006100aa848461007e565b949350505050565b611208806100c16000396000f3fe608060405234801561001057600080fd5b506004361061007d5760003560e01c80636d55b6e91161005b5780636d55b6e9146100e55780637edebec21461010e5780639ad1ee101461013a578063aa9a068f1461014d57600080fd5b80630ec48c48146100825780631a9a6c95146100ab57806320a078cf146100db575b600080fd5b600054610095906001600160a01b031681565b6040516100a29190610347565b60405180910390f35b6100ce6100b9366004610377565b60036020526000908152604090205460ff1681565b6040516100a291906103a8565b6100e3610162565b005b6100956100f3366004610377565b6002602052600090815260409020546001600160a01b031681565b61009561011c366004610377565b6001600160a01b039081166000908152600260205260409020541690565b6100956101483660046103c7565b61028c565b6101556102b6565b6040516100a29190610445565b3360009081526003602052604090205460ff16156101b5576040517f08c379a00000000000000000000000000000000000000000000000000000000081526004016101ac9061045d565b60405180910390fd5b600080546040516001600160a01b03909116906101d190610318565b6101db9190610347565b604051809103906000f0801580156101f7573d6000803e3d6000fd5b506001805480820182557fb10e2d527612073b26eecdfd717e6a320cf44b4afac2b0732d9fcbe2b7fa0cf60180546001600160a01b039093167fffffffffffffffffffffffff0000000000000000000000000000000000000000938416811790915533600090815260026020908152604080832080549096169093179094556003909352909120805460ff1916909117905550565b6001818154811061029c57600080fd5b6000918252602090912001546001600160a01b0316905081565b6060600180548060200260200160405190810160405280929190818152602001828054801561030e57602002820191906000526020600020905b81546001600160a01b031681526001909101906020018083116102f0575b5050505050905090565b610d14806104bf83390190565b60006001600160a01b0382165b92915050565b61034181610325565b82525050565b602081016103328284610338565b61035e81610325565b811461036957600080fd5b50565b803561033281610355565b60006020828403121561038c5761038c600080fd5b6000610398848461036c565b949350505050565b801515610341565b6020810161033282846103a0565b8061035e565b8035610332816103b6565b6000602082840312156103dc576103dc600080fd5b600061039884846103bc565b60006103f48383610338565b505060200190565b6000610406825190565b80845260209384019383018060005b8381101561043a57815161042988826103e8565b975060208301925050600101610415565b509495945050505050565b6020808252810161045681846103fc565b9392505050565b6020808252810161033281602881527f436f6e747261637420616c72656164792065786973747320666f72207468697360208201527f206164647265737300000000000000000000000000000000000000000000000060408201526060019056fe608060405234801561001057600080fd5b50604051610d14380380610d1483398101604081905261002f91610089565b600080546001600160a01b0319166001600160a01b03929092169190911790556100b2565b60006001600160a01b0382165b92915050565b61007081610054565b811461007b57600080fd5b50565b805161006181610067565b60006020828403121561009e5761009e600080fd5b60006100aa848461007e565b949350505050565b610c53806100c16000396000f3fe6080604052600436106100965760003560e01c8063263de34811610069578063a87430ba1161004e578063a87430ba14610138578063c6788bdd14610199578063dbb773d9146101d657600080fd5b8063263de348146101105780633a0132c71461012357600080fd5b80630ec48c481461009b5780631afbd128146100d15780631df34fab146100e85780631f30ed7a146100f0575b600080fd5b3480156100a757600080fd5b506000546100bb906001600160a01b031681565b6040516100c891906108fb565b60405180910390f35b3480156100dd57600080fd5b506100e66101f6565b005b6100e6610286565b3480156100fc57600080fd5b506100e661010b36600461092b565b610434565b6100e661011e36600461096c565b6104fc565b34801561012f57600080fd5b506100e661072f565b34801561014457600080fd5b5061018861015336600461092b565b60016020819052600091825260409091208054918101546002820154600383015460049093015460ff94851694929391921685565b6040516100c89594939291906109e4565b3480156101a557600080fd5b506101c96101b436600461092b565b60026020526000908152604090205460ff1681565b6040516100c89190610a30565b3480156101e257600080fd5b506100e66101f136600461092b565b61077f565b3360009081526001602052604090206004015460ff161561022a57604051635add7b3f60e11b815260040160405180910390fd5b33600090815260026020819052604082205460ff169081111561024f5761024f61098d565b0361026d57604051639b604d0b60e01b815260040160405180910390fd5b336000908152600260205260409020805460ff19169055565b336000908152600160205260409020600481015460ff16156102bb57604051635add7b3f60e11b815260040160405180910390fd5b60008160020154426102cd9190610a54565b905060006102de6224ea0083610a7d565b905060006102ef6224ea0083610a91565b84600201546102fe9190610ab0565b9050804210610338576040517ea71fbb00000000000000000000000000000000000000000000000000000000815260040160405180910390fd5b6000610345836001610ab0565b905060008560010154826103599190610a91565b9050828660020181905550818660030160008282546103789190610ab0565b90915550503481116103aa57348160405163cf47918160e01b81526004016103a1929190610ac3565b60405180910390fd5b600080546040516001600160a01b039091169083906103c890610ae5565b60006040518083038185875af1925050503d8060008114610405576040519150601f19603f3d011682016040523d82523d6000602084013e61040a565b606091505b505090508061042b5760405162461bcd60e51b81526004016103a190610b24565b50505050505050565b6000546001600160a01b0316331461045e5760405162461bcd60e51b81526004016103a190610b34565b3360009081526001602052604090206004015460ff161561049257604051635add7b3f60e11b815260040160405180910390fd5b33600090815260026020819052604082205460ff16908111156104b7576104b761098d565b036104d557604051639b604d0b60e01b815260040160405180910390fd5b6001600160a01b03166000908152600260208190526040909120805460ff19169091179055565b60008160028111156105105761051061098d565b101580156105305750600281600281111561052d5761052d61098d565b11155b15610567576040517f4a6f5b2200000000000000000000000000000000000000000000000000000000815260040160405180910390fd5b3360009081526001602052604090206004015460ff166105b3576040517fac8da94300000000000000000000000000000000000000000000000000000000815260040160405180910390fd5b336000908152600160208190526040909120805490918391839160ff19909116908360028111156105e6576105e661098d565b021790555060048101805460ff1916600117905542600282015560008260028111156106145761061461098d565b0361062b5766470de4df820000600182015561067e565b600182600281111561063f5761063f61098d565b036106565766b1a2bc2ec50000600182015561067e565b600282600281111561066a5761066a61098d565b0361067e5767016345785d8a000060018201555b806001015434106106a957600181015460405163cf47918160e01b81526103a1913491600401610ac3565b600080546040516001600160a01b039091169034906106c790610ae5565b60006040518083038185875af1925050503d8060008114610704576040519150601f19603f3d011682016040523d82523d6000602084013e610709565b606091505b505090508061072a5760405162461bcd60e51b81526004016103a190610bc9565b505050565b3360009081526001602052604090206004015460ff161561076357604051635add7b3f60e11b815260040160405180910390fd5b336000908152600160205260409020600401805460ff19169055565b6000546001600160a01b031633146107a95760405162461bcd60e51b81526004016103a190610b34565b3360009081526001602052604090206004015460ff16156107dd57604051635add7b3f60e11b815260040160405180910390fd5b33600090815260026020819052604082205460ff16908111156108025761080261098d565b0361082057604051639b604d0b60e01b815260040160405180910390fd5b6001600160a01b0381166000908152600260208181526040808420805460ff1916600190811790915590915282206003015461085b91610a91565b90506000826001600160a01b03168260405161087690610ae5565b60006040518083038185875af1925050503d80600081146108b3576040519150601f19603f3d011682016040523d82523d6000602084013e6108b8565b606091505b505090508061072a5760405162461bcd60e51b81526004016103a190610c0d565b60006001600160a01b0382165b92915050565b6108f5816108d9565b82525050565b602081016108e682846108ec565b610912816108d9565b811461091d57600080fd5b50565b80356108e681610909565b60006020828403121561094057610940600080fd5b600061094c8484610920565b949350505050565b6003811061091d57600080fd5b80356108e681610954565b60006020828403121561098157610981600080fd5b600061094c8484610961565b634e487b7160e01b600052602160045260246000fd5b6003811061091d5761091d61098d565b806109bd816109a3565b919050565b60006108e6826109b3565b6108f5816109c2565b806108f5565b8015156108f5565b60a081016109f282886109cd565b6109ff60208301876109d6565b610a0c60408301866109d6565b610a1960608301856109d6565b610a2660808301846109dc565b9695505050505050565b602081016108e682846109cd565b634e487b7160e01b600052601160045260246000fd5b818103818111156108e6576108e6610a3e565b634e487b7160e01b600052601260045260246000fd5b600082610a8c57610a8c610a67565b500490565b818102808215838204851417610aa957610aa9610a3e565b5092915050565b808201808211156108e6576108e6610a3e565b60408101610ad182856109d6565b610ade60208301846109d6565b9392505050565b6000816108e6565b601781526000602082017f5072656d69756d207472616e73666572206661696c6564000000000000000000815291505b5060200190565b602080825281016108e681610aed565b602080825281016108e681602181527f4f6e6c792076657269666965722063616e20706572666f726d20616374696f6e60208201527f2e00000000000000000000000000000000000000000000000000000000000000604082015260600190565b601881526000602082017f5072656d69756d207472616e73666572206661696c65642e000000000000000081529150610b1d565b602080825281016108e681610b95565b601481526000602082017f436c61696d207061796f7574206661696c65642e00000000000000000000000081529150610b1d565b602080825281016108e681610bd956fea264697066735822122019e82e22106da3dfb20397d9d996de697f683b6c3a512a31ffe137f654e3cade64736f6c63430008110033a2646970667358221220de16606a2ef994fca4520f03b494cca3d576fc653e2cebb65c6d70fe2a66c8d864736f6c63430008110033",
  "linkReferences": {},
  "deployedLinkReferences": {}
}