{
  "_format": "hh-sol-artifact-1",
  "contractName": "ProviderInsurance",
  "sourceName": "contracts/ProviderInsurance.sol",
  "abi": [
    {
      "inputs": [
        {
          "internalType": "address payable",
          "name": "_verifierCompany",
          "type": "address"
        }
      ],
      "stateMutability": "nonpayable",
      "type": "constructor"
    },
    {
      "inputs": [],
      "name": "CATEGORY_A_MAX_PROVIDER",
      "outputs": [
        {
          "internalType": "uint256",
          "name": "",
          "type": "uint256"
        }
      ],
      "stateMutability": "view",
      "type": "function"
    },
    {
      "inputs": [],
      "name": "CATEGORY_A_PREMIUM",
      "outputs": [
        {
          "internalType": "uint256",
          "name": "",
          "type": "uint256"
        }
      ],
      "stateMutability": "view",
      "type": "function"
    },
    {
      "inputs": [],
      "name": "CATEGORY_B_MAX_PROVIDER",
      "outputs": [
        {
          "internalType": "uint256",
          "name": "",
          "type": "uint256"
        }
      ],
      "stateMutability": "view",
      "type": "function"
    },
    {
      "inputs": [],
      "name": "CATEGORY_B_PREMIUM",
      "outputs": [
        {
          "internalType": "uint256",
          "name": "",
          "type": "uint256"
        }
      ],
      "stateMutability": "view",
      "type": "function"
    },
    {
      "inputs": [],
      "name": "PAYMENT_INTERVAL",
      "outputs": [
        {
          "internalType": "uint256",
          "name": "",
          "type": "uint256"
        }
      ],
      "stateMutability": "view",
      "type": "function"
    },
    {
      "inputs": [
        {
          "internalType": "address",
          "name": "userAddress",
          "type": "address"
        },
        {
          "internalType": "bool",
          "name": "isApproved",
          "type": "bool"
        }
      ],
      "name": "approveProvider",
      "outputs": [],
      "stateMutability": "nonpayable",
      "type": "function"
    },
    {
      "inputs": [],
      "name": "payPremiumCategoryA",
      "outputs": [],
      "stateMutability": "payable",
      "type": "function"
    },
    {
      "inputs": [],
      "name": "payPremiumCategoryB",
      "outputs": [],
      "stateMutability": "payable",
      "type": "function"
    },
    {
      "inputs": [
        {
          "internalType": "bool",
          "name": "hasDropped",
          "type": "bool"
        }
      ],
      "name": "setProviderStatus",
      "outputs": [],
      "stateMutability": "payable",
      "type": "function"
    },
    {
      "inputs": [
        {
          "internalType": "uint256",
          "name": "_providerAmount",
          "type": "uint256"
        }
      ],
      "name": "setProviderValue",
      "outputs": [],
      "stateMutability": "payable",
      "type": "function"
    },
    {
      "inputs": [
        {
          "internalType": "address",
          "name": "",
          "type": "address"
        }
      ],
      "name": "users",
      "outputs": [
        {
          "internalType": "uint256",
          "name": "providerAmount",
          "type": "uint256"
        },
        {
          "internalType": "bool",
          "name": "hasDropped",
          "type": "bool"
        },
        {
          "internalType": "bool",
          "name": "isApproved",
          "type": "bool"
        },
        {
          "internalType": "uint256",
          "name": "lastPaymentTimestamp",
          "type": "uint256"
        }
      ],
      "stateMutability": "view",
      "type": "function"
    },
    {
      "inputs": [],
      "name": "verifierCompany",
      "outputs": [
        {
          "internalType": "address payable",
          "name": "",
          "type": "address"
        }
      ],
      "stateMutability": "view",
      "type": "function"
    }
  ],
  "bytecode": "0x608060405234801561001057600080fd5b50604051610ae3380380610ae383398101604081905261002f91610089565b600080546001600160a01b0319166001600160a01b03929092169190911790556100b2565b60006001600160a01b0382165b92915050565b61007081610054565b811461007b57600080fd5b50565b805161006181610067565b60006020828403121561009e5761009e600080fd5b60006100aa848461007e565b949350505050565b610a22806100c16000396000f3fe6080604052600436106100c75760003560e01c80637cc0548111610074578063cf93bb391161004e578063cf93bb39146101ee578063e97b69a114610204578063f6ce976a1461022457600080fd5b80637cc0548114610172578063a87430ba1461018e578063bae843c7146101e657600080fd5b806328e471c7116100a557806328e471c714610142578063322898bd1461014c5780634a7bbcaf1461015f57600080fd5b80630ec48c48146100cc57806320dd0c84146101025780632753e44e14610126575b600080fd5b3480156100d857600080fd5b506000546100ec906001600160a01b031681565b6040516100f99190610609565b60405180910390f35b34801561010e57600080fd5b506101196224ea0081565b6040516100f9919061061d565b34801561013257600080fd5b506101196729a2241af62c000081565b61014a61023b565b005b61014a61015a366004610645565b610391565b61014a61016d36600461067f565b6103e7565b34801561017e57600080fd5b50610119671bc16d674ec8000081565b34801561019a57600080fd5b506101d66101a93660046106b4565b600160208190526000918252604090912080549181015460029091015460ff808316926101009004169084565b6040516100f994939291906106dd565b61014a610420565b3480156101fa57600080fd5b5061011961271081565b34801561021057600080fd5b5061014a61021f36600461071b565b6104a6565b34801561023057600080fd5b50610119620186a081565b336000908152600160205260409020546102705760405162461bcd60e51b81526004016102679061078f565b60405180910390fd5b33600090815260016020526040902054671bc16d674ec8000010156102a75760405162461bcd60e51b8152600401610267906107fc565b6127103410156102c95760405162461bcd60e51b815260040161026790610840565b3360009081526001602052604081206002015490036102fd5733600090815260016020526040902042600290910155610354565b3360009081526001602052604090206002015461031e906224ea009061087f565b42101561033d5760405162461bcd60e51b8152600401610267906108c6565b336000908152600160205260409020426002909101555b600080546040516001600160a01b03909116913480156108fc02929091818181858888f1935050505015801561038e573d6000803e3d6000fd5b50565b336000908152600160205260409020546103bd5760405162461bcd60e51b81526004016102679061078f565b33600090815260016020819052604090912001805461ffff191691151561ff001916919091179055565b6103ef61058c565b81111561040e5760405162461bcd60e51b815260040161026790610908565b33600090815260016020526040902055565b3360009081526001602052604090205461044c5760405162461bcd60e51b81526004016102679061078f565b336000908152600160205260409020546729a2241af62c000010156104835760405162461bcd60e51b815260040161026790610972565b620186a03410156102c95760405162461bcd60e51b815260040161026790610840565b6000546001600160a01b031633146104d05760405162461bcd60e51b8152600401610267906109dc565b6001600160a01b0382166000908152600160205260409020546105055760405162461bcd60e51b81526004016102679061078f565b6001600160a01b0382166000908152600160208190526040909120018054821580156101000261ff00199092169190911790915561058857600080546001600160a01b03848116835260016020526040808420549051919092169282156108fc02929190818181858888f19350505050158015610586573d6000803e3d6000fd5b505b5050565b3360009081526001602052604081205481036105af57506729a2241af62c000090565b336000908152600160205260409020546729a2241af62c0000106105da57506729a2241af62c000090565b50671bc16d674ec8000090565b60006001600160a01b0382165b92915050565b610603816105e7565b82525050565b602081016105f482846105fa565b80610603565b602081016105f48284610617565b8015155b811461038e57600080fd5b80356105f48161062b565b60006020828403121561065a5761065a600080fd5b6000610666848461063a565b949350505050565b8061062f565b80356105f48161066e565b60006020828403121561069457610694600080fd5b60006106668484610674565b61062f816105e7565b80356105f4816106a0565b6000602082840312156106c9576106c9600080fd5b600061066684846106a9565b801515610603565b608081016106eb8287610617565b6106f860208301866106d5565b61070560408301856106d5565b6107126060830184610617565b95945050505050565b6000806040838503121561073157610731600080fd5b600061073d85856106a9565b925050602061074e8582860161063a565b9150509250929050565b601581526000602082017f4e6f2070726f76696465722076616c7565207365740000000000000000000000815291505b5060200190565b602080825281016105f481610758565b603181526000602082017f50726f76696465722076616c75652069732077697468696e20746865206c696d81527f697420666f722043617465676f72792041000000000000000000000000000000602082015291505b5060400190565b602080825281016105f48161079f565b601881526000602082017f496e636f7272656374207072656d69756d20616d6f756e74000000000000000081529150610788565b602080825281016105f48161080c565b7f4e487b7100000000000000000000000000000000000000000000000000000000600052601160045260246000fd5b808201808211156105f4576105f4610850565b601c81526000602082017f5061796d656e7420696e74657276616c206e6f7420726561636865640000000081529150610788565b602080825281016105f481610892565b60208082527f50726f76696465722076616c7565206578636565647320746865206c696d697491019081526000610788565b602080825281016105f4816108d6565b602f81526000602082017f50726f76696465722076616c7565206578636565647320746865206c696d697481527f20666f722043617465676f727920410000000000000000000000000000000000602082015291506107f5565b602080825281016105f481610918565b603181526000602082017f4f6e6c792074686520636f6e74726163742076657269666965722063616e206381527f616c6c20746869732066756e6374696f6e000000000000000000000000000000602082015291506107f5565b602080825281016105f48161098256fea26469706673582212207d27ce27bb0b2297a74e4c21aa880f4b963518406bd53c6ade7a69c411679d8d64736f6c63430008110033",
  "linkReferences": {},
  "deployedLinkReferences": {}
}